:100000000C9448000C94CD000C9413010C945901ED
:100010000C949F010C94E5010C9465000C947503FD
:100020000C9499030C94BD030C94C0020C94E4024C
:100030000C9408030C942C030C942E020C94520282
:100040000C9476020C9465000C9465000C94650089
:100050000C9465000C9487000C9465000C9465006A
:100060000C9465000C946500AB00F10037017D0134
:10007000C30109029A025003E1031A04B200F80016
:100080003E018401CA011002A1025703E8032104C2
:1000900011241FBECFEFD8E0DEBFCDBF21E0A0E02E
:1000A000B1E001C01D92A235B207E1F710E0CEE346
:1000B000D0E004C02197FE010E946A04C433D10736
:1000C000C9F70E9449040C9470040C940000FC01D0
:1000D00080818E7F80831282118283818E7F8383D1
:1000E00014821582168288E090E09087878381854C
:1000F0008E7F81870895019709F008956F3F7F4FA4
:10010000E1F780E091E00E946700F7CF08951F9229
:100110000F920FB60F9211242F933F934F935F933B
:100120006F937F938F939F93AF93BF93EF93FF93BF
:100130000E948600FF91EF91BF91AF919F918F91A7
:100140007F916F915F914F913F912F910F900FBED3
:100150000F901F9018956FEF7FEF81E090E00E9465
:100160007B0008956FEF7FEF90E080E00E947B00BE
:100170000895FC0180818E7F808312821182138218
:100180000895019709F008956F3F7F4FE1F78AE0E6
:1001900091E00E94B900F7CF08951F920F920FB619
:1001A0000F9211242F933F934F935F936F937F93FD
:1001B0008F939F93AF93BF93EF93FF930E94CC00D5
:1001C000FF91EF91BF91AF919F918F917F916F912F
:1001D0005F914F913F912F910F900FBE0F901F9005
:1001E00018956FEF7FEF81E090E00E94C1000895C5
:1001F0006FEF7FEF90E080E00E94C1000895FC0166
:1002000080818E7F808312821182138208950197EC
:1002100009F008956F3F7F4FE1F78EE091E00E9473
:10022000FF00F7CF08951F920F920FB60F9211247F
:100230002F933F934F935F936F937F938F939F93EE
:10024000AF93BF93EF93FF930E941201FF91EF9141
:10025000BF91AF919F918F917F916F915F914F91DE
:100260003F912F910F900FBE0F901F9018956FEF39
:100270007FEF81E090E00E94070108956FEF7FEF2C
:1002800090E080E00E9407010895FC0180818E7F4C
:1002900080831282118213820895019709F00895D4
:1002A0006F3F7F4FE1F782E191E00E944501F7CF78
:1002B00008951F920F920FB60F9211242F933F9320
:1002C0004F935F936F937F938F939F93AF93BF935E
:1002D000EF93FF930E945801FF91EF91BF91AF916F
:1002E0009F918F917F916F915F914F913F912F914E
:1002F0000F900FBE0F901F9018956FEF7FEF81E06A
:1003000090E00E944D0108956FEF7FEF90E080E054
:100310000E944D010895FC0180818E7F80831282AE
:10032000118213820895019709F008956F3F7F4F5E
:10033000E1F786E191E00E948B01F7CF08951F92CB
:100340000F920FB60F9211242F933F934F935F9309
:100350006F937F938F939F93AF93BF93EF93FF938D
:100360000E949E01FF91EF91BF91AF919F918F915C
:100370007F916F915F914F913F912F910F900FBEA1
:100380000F901F9018956FEF7FEF81E090E00E9433
:10039000930108956FEF7FEF90E080E00E9493015A
:1003A0000895FC0180818E7F8083128211821382E6
:1003B0000895019709F008956F3F7F4FE1F78AE1B3
:1003C00091E00E94D101F7CF08951F920F920FB6CE
:1003D0000F9211242F933F934F935F936F937F93CB
:1003E0008F939F93AF93BF93EF93FF930E94E4018A
:1003F000FF91EF91BF91AF919F918F917F916F91FD
:100400005F914F913F912F910F900FBE0F901F90D2
:1004100018956FEF7FEF81E090E00E94D901089579
:100420006FEF7FEF90E080E00E94D9010895FC011A
:1004300080818E7F808312821182138214820895BC
:10044000019709F008956F3F7F4FE1F78EE191E04A
:100450000E941702F7CF0895089508951F920F92F2
:100460000FB60F9211242F933F934F935F936F9387
:100470007F938F939F93AF93BF93EF93FF930E94CC
:100480002B02FF91EF91BF91AF919F918F917F913F
:100490006F915F914F913F912F910F900FBE0F90F1
:1004A0001F9018951F920F920FB60F9211242F9341
:1004B0003F934F935F936F937F938F939F93AF93EC
:1004C000BF93EF93FF930E942C02FF91EF91BF9196
:1004D000AF919F918F917F916F915F914F913F91DC
:1004E0002F910F900FBE0F901F9018951F920F9293
:1004F0000FB60F9211242F933F934F935F936F93F7
:100500007F938F939F93AF93BF93EF93FF930E943B
:100510002D02FF91EF91BF91AF919F918F917F91AC
:100520006F915F914F913F912F910F900FBE0F9060
:100530001F9018956FEF7FEF81E090E00E942002FE
:1005400008956FEF7FEF90E080E00E942002089511
:10055000FC0180818E7F808312821182138214823B
:100560000895019709F008956F3F7F4FE1F783E207
:1005700091E00E94A802F7CF089508950895089584
:100580001F920F920FB60F9211242F933F934F9308
:100590005F936F937F938F939F93AF93BF93EF93EB
:1005A000FF930E94BE02FF91EF91BF91AF919F9187
:1005B0008F917F916F915F914F913F912F910F900C
:1005C0000FBE0F901F9018951F920F920FB60F92AB
:1005D00011242F933F934F935F936F937F938F9348
:1005E0009F93AF93BF93EF93FF930E94BC02FF9141
:1005F000EF91BF91AF919F918F917F916F915F919B
:100600004F913F912F910F900FBE0F901F90189513
:100610001F920F920FB60F9211242F933F934F9377
:100620005F936F937F938F939F93AF93BF93EF935A
:10063000FF930E94BD02FF91EF91BF91AF919F91F7
:100640008F917F916F915F914F913F912F910F907B
:100650000FBE0F901F9018951F920F920FB60F921A
:1006600011242F933F934F935F936F937F938F93B7
:100670009F93AF93BF93EF93FF930E94BF02FF91AD
:10068000EF91BF91AF919F918F917F916F915F910A
:100690004F913F912F910F900FBE0F901F90189583
:1006A0006FEF7FEF81E090E00E94B10208956FEF5D
:1006B0007FEF90E080E00E94B1020895FC0180810C
:1006C0008E7F808312821182138214820895019793
:1006D00009F008956F3F7F4FE1F788E291E00E94B3
:1006E0005E03F7CF0895089508951F920F920FB6F5
:1006F0000F9211242F933F934F935F936F937F93A8
:100700008F939F93AF93BF93EF93FF930E947203D6
:10071000FF91EF91BF91AF919F918F917F916F91D9
:100720005F914F913F912F910F900FBE0F901F90AF
:1007300018951F920F920FB60F9211242F933F938B
:100740004F935F936F937F938F939F93AF93BF93D9
:10075000EF93FF930E947303FF91EF91BF91AF91CD
:100760009F918F917F916F915F914F913F912F91C9
:100770000F900FBE0F901F9018951F920F920FB6FB
:100780000F9211242F933F934F935F936F937F9317
:100790008F939F93AF93BF93EF93FF930E94740344
:1007A000FF91EF91BF91AF919F918F917F916F9149
:1007B0005F914F913F912F910F900FBE0F901F901F
:1007C00018956FEF7FEF81E090E00E946703089536
:1007D0006FEF7FEF90E080E00E9467030895DC01F7
:1007E0008C918E7F8C9312961C921E9211979196EB
:1007F0008C9191978C7F846091968C9391978EE1E8
:1008000090E093969C938E93929790E09E3130F473
:10081000FD01E90FF11D13829F5FF8CF0895019745
:1008200009F008956F3F7F4FE1F78DE291E00E945C
:10083000EF03F7CF6FEF7FEF81E090E00E940F04AE
:1008400008956FEF7FEF90E080E00E940F0408951D
:1008500025B12F6025B920915101820F911DFC0116
:1008600080818BB925B13091510181E090E002C0C7
:10087000880F991F3A95E2F78095822385B9809178
:100880005101833021F08F5F80935101089580E002
:10089000FBCFCF93DF9300D000D0CDB7DEB789E98F
:1008A000898380EB8A8384EA8B8389EF8C838FEF43
:1008B0008AB985B18F6085B984B18F6084B9CE0162
:1008C00001960E9428048FE39CE90197F1F700C08C
:1008D0000000F5CFEE0FFF1F0590F491E02D099475
:1008E00010E0CEE3D0E004C0FE010E946A0421962D
:0A08F000C834D107C9F7F894FFCF10
:00000001FF
